:020000022000DC
:1000000000C00091780005FD42C0F092400608E172
:10001000009353060FEF0A950023E9F70091480675
:1000200003FFECC0E0E0F0E0079116910F3F19F4F8
:100030001F3F09F4E3C02BC03091CF0137FDFCCF47
:100040003BB72BBFF8012091CA0113E21093CA01FC
:100050000A01E8952093CA013BBF08953BB72BBF27
:10006000F8012091CA014093CA013DE93093340060
:10007000E8952093CA013BBF089501E70DBF00E258
:100080000EBFC2E9DAE20F94B6000F94720AF09242
:10009000530600910020109101200A3A154511F0F5
:1000A0000C940000F0920020F092012000E20093F6
:1000B0007800F6CFEE84DD84CC84BB84AA84998456
:1000C00088847F806E805D804C80BB81AA8199810D
:1000D0008881F0E0EC0FFD1FEF010895EA92DA92BB
:1000E000CA92BA92AA929A928A927A926A925A92F0
:1000F0004A92BA93AA939A938A930895AF93BF931F
:10010000D80101900D9241505040D9F7BF91AF9165
:1001100008954091CA01E22FF32F0093CA01049180
:100120004093CA01089540E04BBFF80158ED54BF19
:10013000208308954A951AF016950795FBCF0895E8
:100140004A951AF0000F111FFBCF089520E008D048
:10015000E9F708953BBF27913BB702D0D9F708953F
:100160002D9301501040202F212B08950EEF402E8B
:1001700004E1502E02E0602EF201362D6BBE079195
:100180001691F201EE5FFF4F3F4F3BBFA791B69133
:10019000F201362DEC5FFF4F3F4F3BBF4791579128
:1001A0006691242F252B262B21F0FA01362FD2DF42
:1001B00001C0CCDF07E0400E00E0501E601EA2012F
:1001C000662D4C3055416240B8F20895BD01D8010A
:1001D000F90104C021912D9341505040242F252B2B
:0601E000C9F7DB010895E0
:1001F4000D947D010D94B2013ECF0FBF08952AE105
:1002040007D00093FA042BE103D00093FB04089574
:1002140030E002E00F9489000F3F09F40FE10895E4
:100224000F947A0000E00093600000E30F94FA0951
:1002340030D10064008301E000936000AFB7F8940C
:1002440051D028E0029FF001EC54F64D158303953C
:100254000230C0F3D4DF0091C0040093C00419D16C
:100264000068008300810061008384EB99E20496B6
:10027400E6EC80839183E0EC46D10FEF0583E8EC54
:100284000081016000830A2FB8DFE3E00D9466006B
:100294008991089500E008950FB7F89410E410933D
:1002A400CA0410E21093CA04E1ECF4E01081116076
:1002B4001083E9EC108112601083E8EC1081106463
:1002C4001083E9EC108111601083E8EC1081106850
:1002D400108393CF008308950093C304089500917D
:1002E400C304089500E010E008950AD1068F178F23
:1002F40020A331A3089566D00091CB0407FF05C065
:1003040000E814D20F94250429C0F9D1002331F553
:10031400EBECC0D004FF18C000E108D20F94110424
:1003240000E00093C30420E430E010E062D020E455
:1003340030E010E000E85DD002EE19E20093BC2941
:100344001093BD2929D10AC0008106FF02C000E430
:1003540004C0008105FF02C000E2E8D11ED0189558
:1003640031D09ED101FD02C085D1B1F402E00093E9
:10037400CC040091C5043BD0F801008105FF06C000
:1003840036D020E2F801269308D106C000E830D028
:1003940020E2F8012693C0D0E1CFACBF9BBF8FBF52
:1003A40009911991299139914991599169917991B9
:1003B4000990199029903990E991F991899199912D
:1003C400A9910895AA939A938A93FA93EA933A92F5
:1003D4002A921A920A927A936A935A934A933A9374
:1003E4002A931A930A938FB79BB7ACB7089500E08A
:1003F4001AC08A932051304041F02051304039F0E6
:100404002052304031F080E005C081E003C082E03A
:1004140001C083E0EDDF20E0F801218326E02083A2
:100424008064818335CF68EB79E2202F2F70220F0F
:10043400402F440F57DF001F020F43E00F94A0002A
:10044400060F171F08959D01E8EC24D00F7D00834B
:1004540000810F7D00833BD102E00593A2ECB9E259
:1004640041DF0D930C93539600E2069300E4069348
:1004740038D1069300E406931D931D931C931196A3
:100484001D931D931C9317971D931C9310A7D901BB
:100494000895E0ECF4E000810895FFD0002331F0EA
:1004A400033011F0043009F41FD176D029D006812D
:1004B4001781083050E0104009F548E022EE39E297
:1004C4000AEC19E20F94E600E8ECF4E01CD01BD02F
:1004D4000F94DB05002309F4E6C012D0068907FF58
:1004E40004C014D002E004A717C0048D158D012B9D
:1004F40009F405C00BD001E004A7EFD00895DFC0D4
:10050400E4EBF9E2089500810062E4CE00E000A784
:1005140001A702A703A70895BCD0033011F43BD070
:1005240037C083D080A191A1801B910B282F292B48
:10053400A9F47FD0048D158D0217130719F005A5B2
:10054400002311F0C7D024C080D081F07BD071F09B
:1005540000E0FD0102A703A780A191A1803400E07F
:10056400900720F080E490E005A703C001E0009329
:10057400E129FD0186879787068D178D22A533A56E
:10058400020F131F008B118B89014AD0A0D0A6D073
:10059400E4E00D946500A8D056CF7BD0043011F46C
:1005A400FADF3DC0FD018681978162A573A520A174
:1005B40031A18B01080F191F2017310718F4C90145
:1005C400861B970BAC0122EE39E2068D178D060FC0
:1005D400171F0F94E60029D023D08034904031F4C3
:1005E4002CD0448D558D2417350740F000A311A35A
:1005F4002CD011F027D059F062D011C020A131A124
:100604002017310759F421D011F01CD011F44BD02C
:1006140006C00BD00ED000E002A703A75ED0B8CF6F
:10062400080F191F02A713A70895FD0102A513A51A
:10063400089503D020A731A7089520A531A5200F40
:10064400311F089559D00023089545A156A167A1EB
:1006540000E0403050076007089522D001FD09C032
:1006640009D039F41AD0013009F449CF043009F41F
:100674001DD008955ED0E7CF13D001FD09C0FADF85
:1006840039F40BD0023009F425C0033009F40ED03C
:1006940008950F947900A4EBB9E20091E02908953C
:1006A4000091CC04089505E00093E029E1ECF9E21F
:1006B40004E00593E9EBF9E204E00593089520DFF3
:1006C40003E004A700E00687078701D007C0E0EC39
:1006D400F9E2089504E00093E02903D002E00693D0
:1006E4000895E8EBF9E208950BDF42A153A164A158
:1006F400AFDF09F001D00895FA016CBF1994EBEC57
:10070400C9DE02FF08C0F093CA040091C02906FFA5
:100714000BC0A3DF09C0008101FF07C002E006D0BF
:100724000091B82906FDA8DF16C0B4CD0093CA0411
:100734000895B6DF00FFAECD01E00093CC04D1DF15
:1007440000E80693C4DF00E8069301E0EFDFC9DFA9
:1007540000E10693A2DE01E00895BD014DD126819A
:10076400222371F1A281B3812D913C91D901149678
:100774004C91041728F524833583D90112964D91A1
:100784005C91240F351F06C04C9150E0A40FB51F97
:10079400A483B583A481B581A217B30788F4119605
:1007A4004C911197443081F712964C91129704178B
:1007B40059F713964C911397141731F701E001C0C0
:1007C40000E0DB0108953DD0802F10E0E8D111F462
:1007D40000E006C015D0038114812581D5D101E044
:1007E4004DC02FD0802FDBD149F00AD00081118178
:1007F4002281CAD1002311F001E001C000E03EC013
:10080400AEE4B1E2ED91FC91A281B38102E0809F5C
:10081400A00DB11DED91FC9108950D94120111D01C
:100824000DD139F080E003C0082FCDDF839509D1C5
:10083400D8F300E00093522101E010E00D931C93E3
:100844001DC00D947900A3D1C9F080E00EC0FD0154
:1008540018D044855585668500E040305007600710
:1008640019F0FA016CBF19958395C6D0A281B381A2
:10087400ED91FC9111970481801748F3E4E00D9405
:1008840065000281138177D10081F181E02F089501
:100894000091CC290F770D946E010091CC2900238F
:1008A40029F00A9541F00A9511F125C024E030E0C1
:1008B40006E011E21AC025E00EEE10E240E050E03E
:1008C40032E0F801E40FF51F6081439FF001E65325
:1008D400FF4D628353834395421798F3220F2E5F93
:1008E4002093CA2030E00AEC10E2A6D005C021E132
:1008F40004EF10E2E3CF7CC101E0089574D0FD0160
:100904004281238104E411E22A9529F02A95A1F079
:100914002A9551F12CC02DD0208130E0F8010081BE
:1009240011818AD065D0228533850217130710F40C
:100934000287138701E054C01CD021894217B8F400
:10094400F801F9D024E0429F000D111DF801008147
:100954001181F801228133816FD022E0FD010085ED
:10096400F185E02F2183DECF98DF0023D9F600E064
:10097400E2CFF8012081F181E22F089534D038D0FC
:10098400012B59F50F947101002339F1E4E4F1E2EC
:100994007BDF2189FD0102812017F8F040DFFD0192
:1009A400028100935221209152212223C1F0E4E4D8
:1009B400F1E2C1D034E0239F000D111D045010401A
:1009C4001BD002831383A0E001C0A395EAD0A01733
:1009D40030F410E04ED00023C1F700E001C001E084
:1009E400A991B9910895BA93AA93AAECB9E208958A
:1009F400FD01068117810895ECE4F1E2089521DFF9
:100A040093D0068117810130104039F417D029F0B2
:100A1400848117D010F4C1D011F400E00CC0FD01A2
:100A2400A7D02FDFAED00093532121E030E01796FA
:100A34008D0102D001E022CF0D947701ACE4B1E244
:100A4400A8C0FD01B0D080170895AA938A936CD0F2
:100A54006ED041F49ED031F0A48182810A2FB3DE9E
:100A6400002311F400E002C0182F03D08991A9914A
:100A740008950A2FB6CE58D0008107FF2DC02681D5
:100A84003781022F032B09F447C000810F71F1F461
:100A94001181112329F0165069F0125061F016C02B
:100AA400223000E0304009F0089522E030E00CE408
:100AB40011E20AC023CF213000E0304009F008954C
:100AC40021E030E002E511E2B7DF16CF013021F575
:100AD40001810A3009F593CF0F7101F511811A953F
:100AE40081F01250C9F0125019F01450B1F016C030
:100AF4001ED091F40AE414E021E0048715872687C8
:100B0400E4CF15D049F417D00130104029F474DF34
:100B140000810D7F0083D9CF6BC030CF0130E1F766
:100B240001810B30C9F791CFEAECF9E2089506810F
:100B34001781012B089502811381089528D091F023
:100B44008091CE292ED0801768F427D059F054DF35
:100B54000FD0F1DF10D0A081B181FD0112D0102F90
:100B64001DD011F400E003C043DF20850DD086CEF4
:100B74000281F3818BCE22E0829F000D111DF801CA
:100B84000895018512852385F8012CBF19940F94CB
:100B94007900009152210023089510E0082FDDDD33
:100BA400FACFECE4F1E2E4DF0081F181E02F04818B
:100BB4000895BADF00E00287038704870587068764
:100BC4000787008B018B008107FF02C0B0DF81F033
:100BD4000091CA29007619F44EDF002341F40091F4
:100BE400CA290F71013021F4A9DF002309F084CE52
:100BF40000E0089500E000936F2152D00F943C0A66
:100C04000F944B0AD2C00895BA93AA93AAECB9E2FE
:100C14000091CA2900760032F9F51091CB290C9184
:100C240007FF17C0125041F01A9599F526E030E0FD
:100C34000EE511E25ED12BC0F8D0408D518D628D4E
:100C440000E040305007600721F1FA016CBF1995AC
:100C540024C01A9521F01350E1F422D018C0009159
:100C64006F21002341F000E00F94710A02E61AE0BC
:100C740021E01C9609C020E430E002E711E239D1FA
:100C840001E616E021E01F960D931D932C9301E0DD
:100C940004C0CBD00FE064D000E0A991B9910895CD
:100CA40002C000E0089500E0E1D0EAECF9E200E0DF
:100CB4000787008B018B0487058706870895F0DF7B
:100CC40000E0B3D0008F018F028F01E00F94710A0E
:100CD400E2E7F1E230812181203001E0300709F4BC
:100CE40020C0203003E0300709F43DC02130300734
:100CF40009F453C0203004E0300739F40F94530A48
:100D0400002300E009F4089550C02330300721F493
:100D140001E000936F2108952330364009F452C056
:100D2400C0CF83D0048D158D012309F09CC0478169
:100D34005085618540305040604011F410D002C0AD
:100D440027D009F4AECF20E038E0D1D002EF17E08D
:100D540021E0EAECF9E20787108B218B28C003E03D
:100D640002870AE0AACF14D019F023D011F4F7DFD8
:100D740098CF048D158D012321F005E317E021E0C0
:100D840003C00EE617E021E0008F118F228F0FC001
:100D940004E711E271D000230895FADF19F009D0B5
:100DA40011F4DDDF7ECFA7D002C00093702101E0F3
:100DB4000895E4E5F1E24481558166814030504074
:100DC400604008952497E2E7F1E203811281112340
:100DD40019F01A9559F026C00131F0F429D000E039
:100DE40024D0008B018B028B038B1CC040E0488312
:100DF40049834A834B830B8304810A8316D0088179
:100E040019812A813B814081518162817381041758
:100E140015072607370728F008D008E0A1DF00E00F
:100E240002C0CFD001E024960895E4E5F1E20895EC
:100E3400033041F0023031F0043021F0053011F07C
:100E440011E001C010E01093712112E0019FF00144
:100E5400E955FF4D6081F18104E511E2E62F4AE096
:100E640050E00D947E0003E001D01BCF00935E217F
:100E740002E00093622108950F947800A4E5B1E2A2
:100E8400FD0122893389F80150814180FD01408AA6
:100E9400518BF801128103810D901D902D903C908F
:100EA4001397001511052205330540F008E000935F
:100EB4005E210AE00093622100E00BC00419150BC7
:100EC400220B330B66D0FD01048B158B268B378BDD
:100ED40001E0E5E00D946400A8DF2488358964D03E
:100EE400222D6CD0A2DF2489358901D060CF02EB9A
:100EF40011E20D9477010F947900A4E5B1E24ED08C
:100F0400012B022B032B49F400E018EF048B158B03
:100F1400068B078B80E098E01BC040D0402F412B0C
:100F2400422B432B99F1003048E0140780E0204025
:100F3400304010F4C80101C098E0A801668977899F
:100F4400481B590B60407040448B558B668B778BE4
:100F5400392F2AD0282F32D042EB51E204C0FD01B0
:100F640058D017D02ED08C010197012BB1F2FA0181
:100F74000191AF010F3F99F305E000935E2108EE64
:100F840017E021E0FD01008F118F228FE4E00D9422
:100F940065000F5F1F4F2F4F3F4F0895FD010489D8
:100FA4001589268937890895408951896289738909
:100FB400048115812681F8012CBF089502EB11E20A
:100FC4001994008B118B228B338B08952EDF0089AB
:100FD40041894093B2210093B32122E030E085CFD0
:100FE40024DF17D064897589402F4F73042E112490
:100FF40042EB51E2400D511D078010842184F00121
:101004002CBE199500E0EAECF9E20787008B018B0E
:10101400CECE00891189228933890895B901B2D0CD
:10102400208127FDFDCFECEC208128602083105F18
:1010340098018B010F94E600ECECF1E00081077F4E
:10104400008308950F947900C801A22FB091CA01BA
:101054003AD098D0008107FDFDCF82D09093C10192
:101064008093C001A093C40105E337D0B093CA01B3
:10107400E4E00D9465000F947700C801D9012A01BA
:101084000DC08D0134D045E08C010F949A004AD0F4
:101094008096909600EE400E0FEF501E042D052909
:1010A40079F0082F0F7129F400E2401600E0500691
:1010B40040F72D918C01C6DF01960FEF400EEDCF66
:1010C400E6E00D9463005ED0008107FDFDCF008152
:1010D40001FF02C006E301D008950093CA0121E094
:1010E4000BEC11E00D9493003093CA0108953091F4
:1010F400CA012091CF0127FDFCCF0BD02093C00162
:10110400F80141918F014093C40123952032B0F33B
:10111400EBCF23E32093CA0120E02093C201209364
:10112400C10108952ED0108117FDFDCFD0D005E365
:1011340021C09A938A93802F9091CA01C4DF46D02C
:1011440007FDFDCF0DD00093C10111D08093C401E0
:1011540003950032D0F39093CA018991999108952F
:1011640003E30093CA0100E00093C20108950093D1
:10117400C00108950093CA01B2DF8093CA01899126
:1011840008958A93EFECF1E00895FBDF008107FDF9
:10119400FDCFA6D000E3EECF01D0F7CF0FEFC9CF3C
:1011A4000F947900DA01CB01A801622F0FD007FD5B
:1011B400FDCF082F092B49F0FA016BBF06910D935F
:1011C4004F5F5F4F6F4F0197F4CF52CF0091CF0124
:1011D40008950F946E0022974A015B01280139019A
:1011E400912FD90180E0C98807C0F0DF07FDFDCF4A
:1011F40045E2002D0F942E000A2D0B2909F450C04E
:10120400EE24E4DF07FDFDCF00E8D02ECC2071F002
:10121400FC01ABBF07911691088319832881312FF4
:101224002F3F3F4F31F0EE24E39403C00FEF0883C8
:1012340009830A2D0B29C9F0481659066A067B064C
:1012440031F437D0088330D00A2D0B2971F08C018A
:101254009D010F5F1F4F2F4F3F4F401651066206EF
:10126400730619F426D009831FD0488159818C0153
:101274009D010F941C008E5F9F4FAF4FBF4FDA94B8
:1012840029F68C019D010050114020403040EE2091
:10129400002E09F0AACF9ADF07FDFDCF44E2A9CFC3
:1012A4002296E0E10D945A0001E0800E00E0901EC9
:1012B40008950FEFA00EB01E05D0601E701EF4013D
:1012C4000081089501E0400E00E0501E089510E2F0
:1012D400019F00E00093C2011092C1010092C0017D
:1012E4008091CA0108950FBF0895083049F01FB7CF
:1012F400F894E0E5F0E02081202B2083012F72D0C8
:1013040008958A938FB7F8940A9519F00A9559F0BD
:1013140023C0183019F424D0016002C023D00E7FFA
:101324000083E8E616C01ED0097F0083183019F444
:1013340017D002600CC0143011F4008108C01F3FA4
:1013440039F400E807870BEB008B0081046000830D
:10135400E0E6008101600083082F44D0899108955C
:1013640004E0C3DFE6E5F0E0008108952497E0E7B8
:10137400F0E007E01FEF11930A95E9F724E001E498
:101384004AD02CE124D009832DE121D0088319818E
:101394000F3F1F4F21F400E413E2088319830881EF
:1013A40019810A831B830A81009362000B810093D5
:1013B400630034D021E000E42ED00FB7F894E0E5C8
:1013C400F0E010811E7F10830DD02496089530E044
:1013D40002E00D9489004FB7F894109504D00123CE
:1013E4000083042F80CFF0E0E02FE059FF4FBCCF03
:1013F4008A93063011F488E101C080E00091510025
:1014040001FB0EF00BD08360282F04E404D010E419
:1014140000E0E1DFA3CF10E00D94930002E065DF6C
:101424000091510001FBE6F71FEF02E06ACF0A01C9
:101434001B01B901A801800191010D94D208E1E0DA
:10144400EA930D94EB080A01A901980180010D9417
:1014540010089A01AB010D943D080A01A90122E785
:1014640030E2200D311D0D94E6000A01A90128E4A3
:1014740031E2F7CFE8E4F1E20091900000830091BB
:1014840091000183009192000283009193000383F1
:101494000895E0EDF1E0008101FB00E000F90F2781
:1014A40008950091CF0107FDFCCF40E200E010E079
:1014B40020E030E00F942E000F94CE0801E0089550
:1014C400F8940AEA15E5E0E0F0E200831183209144
:1014D4007900216009E710E00F949300FFCF08958D
:1014E40027E402EA10E00F9493000F94B80978946B
:1014F4000F940F040F944E01FFCFDA084821000027
:1015040000D60072200C150204000000000200192D
:101514000A01210A0100080000250A012B0A01031F
:101524000000002F0A0100000004000000370A0137
:101534000000000000000000000000000075207F93
:10154400209D209D20892093209D209D209D209DCD
:10155400209D209D209D209D209D209D209D20003C
:101564000003000000000000000000000000000074
:101574000000000000000000000000000000000067
:101584000000000041544D454C0044465520415450
:10159400584D45474131323841345500040309045C
:1015A400FC050105060106060153060100000000C2
:1015B4001201000200000040EB03DE2F04000102D0
:1015C400000109021200010100C0320904000000F8
:0E15D400FF0000000A212C213E211A21402197
:0400000320000000D9
:00000001FF
